:020000040800F2
:1000000020660024E1020008219C000841730008DA
:10001000199C00081907000889B4000800000000B6
:1000200000000000000000000000000051A10008D6
:10003000C10C000800000000919D0008C1A100084B
:10004000FB020008FB020008FB020008FB0200089C
:10005000FB020008FB020008FB020008FB0200088C
:10006000FB020008FB020008FB0200086907000809
:10007000790700088907000899070008A907000800
:10008000FB020008B9070008FB020008F10C000899
:10009000110D0008010D0008210D0008FB020008E9
:1000A000FB020008FB020008FB020008FB0200083C
:1000B000FB020008FB020008FB020008FB0200082C
:1000C000FB020008FB020008FB020008FB0200081C
:1000D00059A00008FB020008FB020008FB02000810
:1000E000C90C0008FB02000800000000FB02000829
:1000F000FB020008FB020008FB020008FB020008EC
:10010000FB020008FB020008FB020008FB020008DB
:10011000FB020008C9A40008FB02000859A300085C
:10012000C9070008FB020008FB020008FB020008E8
:10013000FB020008FB020008FB020008FB020008AB
:1001400000000000000000000000000000000000AF
:10015000FB020008FB020008FB020008FB0200088B
:10016000FB020008FB020008FB020008FB0200087B
:10017000FB020008FB020008FB0200080000000070
:10018000FB020008FB020008D9A40008FB020008DB
:10019000FB020008FB020008FB020008FB0200084B
:1001A000FB020008FB020008FB0200080000000040
:1001B000FB020008FB020008FB020008FB0200082B
:1001C000FB020008FB020008000000000000000025
:1001D0000000000000000000FB020008000000001A
:1001E000000000000000000000000000000000000F
:1001F0000000000000000000FB020008FB020008F5
:10020000FB020008FB02000800000000FB020008DF
:10021000FB020008FB020008FB020008FB020008CA
:10022000FB02000800000000FB02000800000000C4
:10023000FB020008FB02000800000000FB020008AF
:10024000FB020008FB020008FB020008FB0200089A
:10025000FB020008FB020008FB020008FB0200088A
:10026000FB020008FB020008FB020008FB0200087A
:10027000FB020008FB020008FB020008000000006F
:10028000FB020008FB020008FB020008FB0200085A
:1002900000000000FB020008FB0200080000000054
:1002A00000000000FB020008FB020008FB0200083F
:1002B00079B40008FB020008FB020008FB020008FA
:1002C000FB020008FB020008FB020008DFF80CD06C
:1002D00000F094F80048004711EF00082066002461
:1002E0000648804706480047FEE7FEE7FEE7FEE7D0
:1002F000FEE7FEE7FEE7FEE7FEE7FEE7A9A200084D
:10030000CD0200082DE9F05F0546002092469B468D
:1003100088460646814640241BE02846414647461B
:10032000224600F05AF853465A46C01A914110D35B
:1003300011461846224600F041F82D1A67EB0108D5
:100340004F4622460120002100F038F817EB000943
:100350004E41201EA4F10104DFDC484631462A4606
:100360004346BDE8F09F40EA01039B0703D009E044
:1003700008C9121F08C0042AFAD203E011F8013B91
:1003800000F8013B521EF9D27047D2B201E000F8EA
:10039000012B491EFBD270470022F6E710B5134629
:1003A0000A4604461946FFF7F0FF204610BD421CDE
:1003B00010F8011B0029FBD1801A7047202A04DBAA
:1003C000203A00FA02F1002070479140C2F1200368
:1003D00020FA03F3194390407047202A04DB203AA7
:1003E00021FA02F00021704721FA02F3D040C2F155
:1003F0002002914008431946704700001CB5094887
:100400000090094801900546009C06E0E06840F035
:10041000010394E8070098471034AC42F6D3FFF785
:1004200059FF0000B8420108D8420108000000004E
:1004300040F600000121C5F60200012203F004BAD3
:1004400040F600000121C5F60200002203F0FCB9CD
:10045000704700000000000040F600000821C5F6CB
:100460000200012203F0F0B940F600000821C5F6B1
:100470000200002203F0E8B970470000000000000D
:10048000002808BF704710B54EF2180145F2003C35
:10049000CEF20001C0F2070C03E000BF01380204F5
:1004A0001AD051F804EC0B68002208E01A449C4270
:1004B000A2EB0402234628BF72446245EED20C68C8
:1004C0009C42F3D10C689C4204BF0C689C42EDD165
:1004D0000C689C42F3D0E9E7BDE81040704700008B
:1004E00080B54EF21801C0EB0010CEF200014FEAC9
:1004F000401E002351F804CC0A6808E013449042DF
:10050000A3EB0003024628BF634473450CD208687E
:100510009042F3D10868904204BF08689042EDD140
:1005200008689042F3D0E9E780BD000000000000B9
:1005300010B5FFF78DFFFFF79FFF0CF081FE04461B
:100540000CF00AFF204310BD2DE9F04F81B000925E
:100550000E468146FFF774FF922000F0C5F8922006
:1005600000F0C2F8552000F0BFF88046552000F09A
:10057000BBF88346552000F0B7F88246552000F0BE
:10058000B3F80446552000F0AFF80746552000F0B8
:10059000ABF80546FFF74CFF48EA0B2000B24AEAE9
:1005A000042109B200EE100A40F20400C2F2004039
:1005B000B8EEC00A90ED001A21EE000A01EE101A02
:1005C00047EA052186ED000A09B290ED002A00EE07
:1005D000101AB8EEC11AB8EEC00A22EE011A86ED62
:1005E000011A22EE000A86ED020AFFF73DFF802085
:1005F00000F07AF8552000F077F80646552000F014
:1006000073F8552000F070F88246552000F06CF821
:100610000546552000F068F88346552000F064F840
:100620000446552000F060F80746552000F05CF8BD
:100630008046FFF711FF0F2E28D14AEA052000B2AD
:100640004BEA042109B200EE100A40F20800C2F29F
:100650000040B8EEC00A90ED001A21EE000A01EE4B
:10066000101A47EA082189ED000A09B290ED002A24
:1006700000EE101AB8EEC11AB8EEC00A22EE011A46
:1006800089ED011A22EE000A89ED020AFFF7D8FE71
:10069000A22000F029F8A22000F026F8552000F052
:1006A00023F80446552000F01FF80546FFF7C0FE6A
:1006B000E0004FF6000340EA55110022CFF6FF7329
:1006C000B2EB902F18BF1943B4EE001AB3EE072A0D
:1006D00000EE101A0098B8EEC00AA0EE012A80EDD4
:1006E000002A01B0BDE8F08F80B582B08DF8070018
:1006F00040F62070C2F200400DF107010DF1060234
:1007000001234FF47A7CCDF800C004F0A9FF9DF8D6
:10071000060002B080BD0000FEE7000000000000FF
:1007200080B582B04FEA102C8DF80100080A8DF8D0
:100730000200100A8DF80400180A8DF8060040F631
:10074000E0508DF803108DF80520C2F200406A4693
:100750004FF400718DF800C08DF807300DF08CFC5F
:1007600002B080BD0000000040F6F040C2F2004040
:1007700001F02EB80000000040F69820C2F20040C0
:1007800001F026B80000000040F61030C2F2004030
:1007900001F01EB80000000040F68830C2F20040B0
:1007A00001F016B80000000040F66850C2F20040A8
:1007B00001F00EB80000000040F67840C2F20040A0
:1007C00001F006B80000000040F60040C2F2004010
:1007D00000F0FEBF0000000040F20F42D0F800C061
:1007E000C4F20202944510DC6F22C4F20202944566
:1007F00020DC3F22C4F20202944536DC1022C4F20F
:100800000202944554D028224EE040F26F42C4F2D6
:10081000020294451ADC40F23F42C4F202029445BF
:100820002ADC40F21042C4F20202944540D040F269
:10083000284239E09F22C4F20202944525DC70224E
:10084000C4F20202944533D088222DE040F29F4248
:10085000C4F2020294451FDC40F27042C4F202026C
:10086000944525D040F288421EE04022C4F20202A4
:1008700094451DD0582217E040F24042C4F20202D3
:10088000944515D040F258420EE0A022C4F2020274
:1008900094450DD0B82207E040F2B842C4F20202FB
:1008A000944505D040F2A042C4F20202944517D10B
:1008B0000CF0F8024AF6AB23103ACAF6AA23A2FBC0
:1008C000033109A35F2AC1F302115B5C40F2FF31DF
:1008D0002CEA0101C36588BF043181650846704771
:1008E0002CF0FF01F9E700BF0006101600061016F5
:1008F00070B540F26F44D0F800C0C4F20204D0F8E2
:1009000058E0A44519DC9F25C4F20205AC4531DC52
:100910005725C4F20205AC4556DC1025C4F2020589
:10092000AC4500F092802825C4F20205AC4500F0E9
:100930008C804025C4F2020584E045F22F45C5F6BF
:100940000205AC452BDC40F2B745C4F20205AC45CC
:1009500048DC40F27045C4F20205AC4575D040F267
:100960008845C4F20205AC456FD040F2A045C4F200
:10097000020567E040F22745C4F20205AC4540DCC1
:10098000A025C4F20205AC455FD0B825C4F202052B
:10099000AC455AD040F21045C4F2020552E045F28F
:1009A0006B45C5F60205AC453CDC45F23045C5F665
:1009B0000205AC4549D045F24445C5F60205AC45B3
:1009C00043D045F258453BE05825C4F20205AC45FA
:1009D0003BD07025C4F20205AC4536D08825C4F260
:1009E00002052FE040F2B845C4F20205AC452CD018
:1009F00045F20845C5F60205AC4526D045F21C4532
:100A00001EE040F22845C4F20205AC451DD040F27C
:100A10004045C4F20205AC4517D040F25845C4F237
:100A200002050FE045F26C45C5F60205AC450CD059
:100A300045F29445C5F60205AC4506D045F2804521
:100A4000C5F60205AC4540F0CC80456EC66E002E62
:100A5000866E6E601CBFD0E91C566E60A44515DC26
:100A60009F24C4F20204A4452BDC5724C4F20204E0
:100A7000A4454EDC1024C4F20204A44576D02824F8
:100A8000C4F20204A44571D040246BE045F22F4427
:100A9000C5F60204A44527DC40F2B744C4F20204C0
:100AA000A44542DC40F27044C4F20204A4455DD087
:100AB00040F28844C4F20204A44557D040F2A04456
:100AC00050E040F22744C4F20204A4453CDCA024D8
:100AD000C4F20204A44549D0B824C4F20204A445D7
:100AE00044D040F210443DE045F26B44C5F60204A8
:100AF000A44553DC45F23044C5F60204A4455FD05A
:100B000045F24444C5F60204A44559D045F2584480
:100B100052E05824C4F20204A44527D07024C4F241
:100B20000204A44522D088241CE040F2B844C4F258
:100B30000204A4451AD045F20844C5F60204A445AF
:100B40003ED045F21C4437E040F22844C4F202048F
:100B5000A4450BD040F24044C4F20204A44505D0A1
:100B600040F25844C4F20204A4453AD18468C06DEE
:100B700000F01F003F2505FA00F0CEF80800DCF871
:100B80000000402C20F48020CCF80000CCF8043089
:100B900023D1CCF80820CCF80C1070BD45F26C4481
:100BA000C5F60204A4450BD045F28044C5F6020404
:100BB000A44505D045F29444C5F60204A44510D1DD
:100BC000C46D012504F01F04806805FA04F4CEF812
:100BD00004404028CCF80430DBD0CCF80810CCF826
:100BE0000C2070BD00000000002818BF002900D1B3
:100BF000704770B590F800C0427862F30A2CA1F8F3
:100C000001C0427883784FEAD20E63F34A1EA1F8FE
:100C100003E08278C37804799B0043EA921264F37C
:100C20008A22A1F805200379A2F5806244795B0845
:100C300064F3CA13A1F807304479C4F30114CC72E9
:100C40004579022C4FEA95150D738579C67945EAE9
:100C50000625A1F80D50057A467A45EA0625A1F841
:100C60000F50857AC67A45EA0625A1F81150057B12
:100C7000CD74457B0D75857BC67B45EA0625A1F8BD
:100C80001550057CACF58066407CA1F80520A3F5E5
:100C90008062A1F807204FF00302A1F8016045EA45
:100CA0000020AEF58066A1F80360A0F58060A1F891
:100CB000090008BF01220A70BDE8704070470000BB
:100CC000704700000000000080B54FF4806002F023
:100CD000DBFC4FF48050BDE8804002F0D5BC000042
:100CE000EFF3108072B600BFFEE7000000000000C6
:100CF00040F6E050C2F2004002F02EB800000000C2
:100D000040F6E050C2F2004002F026B800000000B9
:100D100040F68060C2F2004002F01EB80000000001
:100D200040F68060C2F2004002F016B800000000F9
:100D3000F0B5D1E900C4D1F808E00D692CB14EEA54
:100D40000C04254345F0804C03E045EA8C4444EA1A
:100D50000E0C856ED0F88470D1E907466B438D691F
:100D600044EA0660D1F814E0CC68054307EB830041
:100D700045EA0E0647F823C046EA04434360CB68C1
:100D8000002B08BFF0BD43F2745C08300132002331
:100D9000C0F6010CD71857F8017CC750CF68043350
:100DA0001CF80770BB42F5D3F0BD00000000000046
:100DB00010B58AB041F6A0046A46C2F20044402150
:100DC000234601F0DDFE0098A0F20120112800F278
:100DD0008880DFE800F009351F4B86868686868688
:100DE000868686868686866241F212202188C2F235
:100DF0000040A38809BA028802816288090C018038
:100E000012BA110C41801ABA110C8180A17981713A
:100E10000AB010BD41F212202188C2F20040A3881E
:100E200009BA828A82836288090C818212BA110C03
:100E3000C1821ABA110C0183A17981760AB010BD62
:100E400041F212202188C2F20040A38809BA4289E7
:100E500042826288090C418112BA110C81811ABA4E
:100E6000110CC181A17901740AB010BD41F21220A8
:100E70002188C2F20040A38809BAC28BC28462886A
:100E8000090CC18312BA110C01841ABA110C4184E5
:100E9000A17980F824100AB010BD208846F2001114
:100EA0009FED111B00EE100A6088C2F2004102EEB5
:100EB000100A40F63000B8EEC00BC2F20040B8EEA7
:100EC000C22B80EE010B82EE011B80ED001B40F671
:100ED0001800C2F2004081ED000B20EE010B80ED06
:100EE000000B0AB010BD00BF000000000000594018
:100EF000B0B58AB041F6A8046A46C2F20044402167
:100F0000234601F03DFE0098A0F2012007282AD8D0
:100F1000C1B2A72222FA01F1C90724D043F2642109
:100F200012A2C0F6010119A352F820200FF27C0C86
:100F300051F820100FF2940E53F820305CF820C0C6
:100F40000D885EF820001580228812BA120C0A80E3
:100F5000618809BA090C1980A18809BA090CACF892
:100F60000010A17901700AB0B0BD00BF5612002474
:100F7000601200246A120024561200245612002423
:100F80004C12002456120024421200245012002455
:100F90005A1200246412002450120024501200241B
:100FA00046120024501200243C1200245212002445
:100FB0005C120024661200245212002452120024F3
:100FC00048120024521200243E120024541200241D
:100FD0005E120024681200245412002454120024CB
:100FE0004A12002454120024401200240000000081
:100FF00040F28830C2F2004090ED690A704700006C
:1010000040F28830C2F2004090ED680A704700005C
:1010100040F28830C2F2004090ED6A0A704700004A
:1010200080B582B00B0A8DF80310010A8DF8070015
:1010300040F680600022ADF80020C2F20040ADF81A
:1010400004206A468DF806104FF4FF718DF80230C7
:101050000DF012F802B080BD2DE9F041044602F017
:10106000FBFB14B3054694F83500022820D140F26A
:101070000F472668C4F2020740F26F48BE426FF085
:101080000E00C4F2020817DC6F21C4F202018E4286
:1010900023DC3F21C4F202018E4239DC1021C4F26C
:1010A00002018E4258D0282151E00120BDE8F08194
:1010B00080206065012037E246451ADC40F23F415E
:1010C000C4F202018E422ADC40F21041C4F2020155
:1010D0008E4241D040F2284139E09F21C4F2020102
:1010E0008E4225DC7021C4F202018E4234D0882168
:1010F0002DE040F29F41C4F202018E421FDC40F21B
:101100007041C4F202018E4226D040F288411EE0B6
:101110004021C4F202018E421ED0582117E040F255
:101120004041C4F202018E4216D040F258410EE016
:10113000A021C4F202018E420ED0B82107E040F295
:10114000B841C4F202018E4206D040F2A041C4F27E
:1011500002018E42314607D13146306820F01E0030
:1011600041F8140B6FF080000A68464500EA02005F
:10117000086019DC9F20C4F20200864231DC57204F
:10118000C4F20200864256DC1020C4F202008642FD
:1011900000F091802820C4F20200864200F08B808B
:1011A0004020C4F2020084E045F22F40C5F6020060
:1011B00086422BDC40F2B740C4F20200864248DC93
:1011C00040F27040C4F20200864274D040F288407F
:1011D000C4F2020086426ED040F2A040C4F2020087
:1011E00067E040F22740C4F20200864240DCA020C3
:1011F000C4F2020086425ED0B820C4F202008642E9
:1012000059D040F21040C4F2020052E045F26B4067
:10121000C5F6020086423CDC45F23040C5F60200CD
:10122000864248D045F24440C5F60200864242D08C
:1012300045F258403BE05820C4F2020086423AD0C2
:101240007020C4F20200864235D08820C4F2020029
:101250002FE040F2B840C4F2020086422BD045F2A3
:101260000840C5F60200864225D045F21C401EE02B
:1012700040F22840C4F2020086421CD040F24040B6
:10128000C4F20200864216D040F25840C4F2020076
:101290000FE045F26C40C5F6020086420BD045F2E5
:1012A0009440C5F60200864205D045F28040C5F65E
:1012B0000200864204D1206E016821F48071016031
:1012C000306820F0010030603068C0070BD002F0B9
:1012D000C3FA401B0628F7D320206065032084F85A
:1012E0003500012020E120680821B8424FF03F027C
:1012F00010DC6F23C4F2020398421CDC3F23C4F2CB
:101300000203984232DC1023C4F20203984251D007
:1013100028234AE040451ADC40F23F43C4F202036E
:1013200098422ADC40F21043C4F20203984241D0B2
:1013300040F2284339E09F23C4F20203984225DC9F
:101340007023C4F20203984234D088232DE040F287
:101350009F43C4F2020398421FDC40F27043C4F280
:101360000203984226D040F288431EE04023C4F294
:10137000020398421ED0582317E040F24043C4F2C3
:101380000203984216D040F258430EE0A023C4F264
:10139000020398420ED0B82307E040F2A043C4F203
:1013A0000203984206D040F2B843C4F202039842C6
:1013B00040F0BF80D4E9163707F01F07404502FA16
:1013C00007F25A5019DC9F21C4F20201884231DC35
:1013D0005721C4F20201884256DC1021C4F20201F6
:1013E000884200F091802821C4F20201884200F076
:1013F0008B804021C4F2020184E045F22F41C5F602
:10140000020188422BDC40F2B741C4F2020188425B
:1014100048DC40F27041C4F20201884274D040F2CC
:101420008841C4F2020188426ED040F2A041C4F269
:10143000020167E040F22741C4F20201884240DC29
:10144000A021C4F2020188425ED0B821C4F2020198
:10145000884259D040F21041C4F2020152E045F2F4
:101460006B41C5F6020188423CDC45F23041C5F6CD
:101470000201884248D045F24441C5F60201884243
:1014800042D045F258413BE05821C4F20201884263
:101490003AD07021C4F20201884235D08821C4F2CA
:1014A00002012FE040F2B841C4F2020188422BD081
:1014B00045F20841C5F60201884225D045F21C419B
:1014C0001EE040F22841C4F2020188421CD040F2E2
:1014D0004041C4F20201884216D040F25841C4F2A1
:1014E00002010FE045F26C41C5F6020188420BD0C3
:1014F00045F29441C5F60201884205D045F280418B
:10150000C5F6020188420BD1616EA26EE06E4A60A0
:1015100030B1016821F480710160D4E91C0141609F
:10152000012084F835000020002184F83410BDE843
:10153000F081042101223DE7F0B190F83510022935
:1015400018D180B540F20F420168C4F20202914204
:1015500014DC6F23C4F20203994224DC3F23C4F25B
:10156000020399423ADC1023C4F20203994258D094
:10157000282352E0802141650120704740F26F43EB
:10158000C4F2020399421ADC40F23F43C4F2020360
:1015900099422ADC40F21043C4F20203994240D03F
:1015A00040F2284339E09F23C4F20203994225DC2C
:1015B0007023C4F20203994233D088232DE040F215
:1015C0009F43C4F2020399421FDC40F27043C4F20D
:1015D0000203994225D040F288431EE04023C4F222
:1015E000020399421DD0582317E040F24043C4F251
:1015F0000203994215D040F258430EE0A023C4F2F2
:10160000020399420DD0B82307E040F2B843C4F278
:101610000203994205D040F2A043C4F2020399426A
:101620006ED191424FF0040280F8352010DC6F201B
:10163000C4F20200814220DC3F20C4F20200814259
:1016400036DC1020C4F20200814253D028204EE044
:1016500040F26F40C4F2020081421ADC40F23F4087
:10166000C4F2020081422ADC40F21040C4F20200BF
:1016700081423FD040F2284039E09F20C4F202006E
:10168000814225DC7020C4F20200814232D08820E1
:101690002DE040F29F40C4F2020081421FDC40F284
:1016A0007040C4F20200814224D040F288401EE023
:1016B0004020C4F2020081421CD0582017E040F2C2
:1016C0004040C4F20200814214D040F258400EE083
:1016D000A020C4F2020081420CD0B82007E040F202
:1016E000B840C4F20200814204D040F2A040C4F2EB
:1016F00002008142086820F001000860002080BDDF
:101700000A6822F00E020A6045F25742C5F602024C
:1017100091420A6822F001020A600EDC45F22F4273
:10172000C5F60202914217DC45F20842C5F60202F4
:10173000914226D045F21C421FE045F27F42C5F699
:101740000202914211DC45F25842C5F60202914272
:1017500017D045F26C4210E045F23042C5F6020265
:1017600091420ED045F2444207E045F29442C5F65C
:101770000202914205D045F28042C5F60202914232
:101780001AD1D0E9181CD0E916E30A6822F4807255
:101790000A6003F01F01012202FA01F1CEF80410E1
:1017A000816ECCF80410C16E31B10A6822F48072E7
:1017B0000A60D0E91C124A60012180F83510016DE1
:1017C0000022002980F8342098D08847002080BD6E
:1017D0002DE9F04782B00021019140F2A40148F2C6
:1017E000B513C2F20041C1F64E33856D40F26F4928
:1017F0000A680168C4F202092E68A2FB0328494561
:101800002A6815DC9F22C4F2020291422BDC572287
:10181000C4F2020291424FDC1022C4F20202914251
:1018200078D02822C4F20202914273D040226CE0A8
:1018300045F22F43C5F60203994227DC40F2B74335
:10184000C4F20203994243DC40F27042C4F2020245
:1018500091425FD040F28842C4F20202914259D0D4
:1018600040F2A04251E040F22742C4F2020291420B
:101870003DDCA022C4F2020291424BD0B822C4F255
:101880000202914246D040F210423EE045F26B43E4
:10189000C5F60203994273DC45F23043C5F60203F4
:1018A000994200F0808045F24443C5F60203994214
:1018B00079D045F2584371E05822C4F202029142B5
:1018C00028D07022C4F20202914223D088221CE068
:1018D00040F2B843C4F2020399421BD045F20843D8
:1018E000C5F6020399425ED045F21C4356E040F231
:1018F0002842C4F2020291420CD040F24042C4F2AB
:101900000202914206D040F25842C4F202029142D1
:1019100040F02D83C26D082302F01F0240F20F4AEF
:101920009340C4F2020A334200F0D18051454FF097
:10193000040412DC6F27C4F20207B94264DC3F27BB
:10194000C4F20207B94200F392801027C4F20207E2
:10195000B94200F0B0802827A8E0494560DC40F299
:101960003F47C4F20207B94200F3888040F21047B3
:10197000C4F20207B94200F09E8040F2284795E089
:1019800045F26C43C5F6020399420CD045F2804300
:10199000C5F60203994206D045F29443C5F6020308
:1019A000994240F0E4820B68C76D07F01F070426D8
:1019B000BE40164218BF13F004041BD10226BE40DD
:1019C000164218BF13F0020439D1FA40120740F151
:1019D000CE8213F0080200F0CA820A6822F00E02DA
:1019E0000A60012101FA07F26A60416580F835104A
:1019F000C16C5BE21A046E6033D49A0635D40A686F
:101A000022F004020A6030E09F27C4F20207B942C4
:101A10003DDC7027C4F20207B9424CD0882745E06C
:101A200040F29F47C4F20207B94237DC40F27047E8
:101A3000C4F20207B9423ED040F2884736E01A04A9
:101A40006E6000F197829A0600F198820A6822F08F
:101A50000A020A60012180F83510002180F8341054
:101A60008CE2D90301D4816C7CE2016C7AE24027DC
:101A7000C4F20207B9421ED0582717E040F240478F
:101A8000C4F20207B94216D040F258470EE0A02730
:101A9000C4F20207B9420ED0B82707E040F2A047CF
:101AA000C4F20207B94206D040F2B847C4F20207B6
:101AB000B94218BF08240F68274208D00F6827F0E2
:101AC00004070F60AB60436D43F0010343650123DE
:101AD000934033426AD0514510DC6F27C4F20207AD
:101AE000B9421CDC3F27C4F20207B94232DC10279E
:101AF000C4F20207B94251D028274AE049451ADC0E
:101B000040F23F47C4F20207B9422ADC40F21047D4
:101B1000C4F20207B94241D040F2284739E09F277A
:101B2000C4F20207B94225DC7027C4F20207B942A9
:101B300034D088272DE040F29F47C4F20207B94213
:101B40001FDC40F27047C4F20207B94226D040F2CF
:101B500088471EE04027C4F20207B9421ED058272A
:101B600017E040F24047C4F20207B94216D040F2F3
:101B700058470EE0A027C4F20207B9420ED0B8279A
:101B800007E040F2A047C4F20207B94206D040F293
:101B9000B847C4F20207B94240F0F2814F693F06EC
:101BA00004D5AB60436D43F00203436504239340C7
:101BB00033426AD0514510DC6F27C4F20207B942A4
:101BC0001CDC3F27C4F20207B94232DC1027C4F202
:101BD0000207B94251D028274AE049451ADC40F2B1
:101BE0003F47C4F20207B9422ADC40F21047C4F270
:101BF0000207B94241D040F2284739E09F27C4F29A
:101C00000207B94225DC7027C4F20207B94234D07A
:101C100088272DE040F29F47C4F20207B9421FDC3B
:101C200040F27047C4F20207B94226D040F288471A
:101C30001EE04027C4F20207B9421ED0582717E021
:101C400040F24047C4F20207B94216D040F258476A
:101C50000EE0A027C4F20207B9420ED0B82707E071
:101C600040F2A047C4F20207B94206D040F2B8479A
:101C7000C4F20207B94240F085810F68BF0704D55E
:101C8000AB60436D43F004034365102303FA02F293
:101C900032427AD051454FF0080310DC6F27C4F26E
:101CA0000207B9421CDC3F27C4F20207B94232DC0A
:101CB0001027C4F20207B94251D028274AE049450B
:101CC0001ADC40F23F47C4F20207B9422ADC40F274
:101CD0001047C4F20207B94241D040F2284739E028
:101CE0009F27C4F20207B94225DC7027C4F202071D
:101CF000B94234D088272DE040F29F47C4F2020752
:101D0000B9421FDC40F27047C4F20207B94226D044
:101D100040F288471EE04027C4F20207B9421ED0B5
:101D2000582717E040F24047C4F20207B94216D0E4
:101D300040F258470EE0A027C4F20207B9420ED085
:101D4000B82707E040F2A047C4F20207B94206D024
:101D500040F2B847C4F20207B94218BF04230F6823
:101D60001F4212D0AA600A6852030A6806D4D2053C
:101D700006D40A6822F008020A6001E011034ED47A
:101D8000016C11B1044688472046C16D01F01F0265
:101D9000202101FA02F3334200F0A88001681027E5
:101DA000514510DC6F26C4F20206B1421CDC3F260E
:101DB000C4F20206B14236DC1026C4F20206B14279
:101DC00055D028264EE049451ADC40F23F46C4F281
:101DD0000206B1422EDC40F21046C4F20206B142C5
:101DE00045D040F228463DE09F26C4F20206B142AB
:101DF00029DC7026C4F20206B14238D0882631E0D0
:101E000040F29F46C4F20206B14223DC40F2704623
:101E1000C4F20206B1422AD040F2884622E0816C28
:101E20000029AFD1B1E74026C4F20206B1421ED06C
:101E3000582617E040F24046C4F20206B14216D0DE
:101E400040F258460EE0A026C4F20206B1420ED07F
:101E5000B82607E040F2A046C4F20206B14206D01E
:101E600040F2B846C4F20206B14218BF02270E681B
:101E70003E423BD0AB6090F83530042B0B681CD150
:101E800023F016030B604B6923F080034B61036C56
:101E90000BB9836C1BB10B6823F008030B603F2167
:101EA0009140A960012180F83510016D00294FF0A3
:101EB000000280F8342056D159E05A030A680CD445
:101EC000D2050ED40A6822F010020A60012180F8BF
:101ED0003510002180F8341003E0110301D4416C67
:101EE00000E0C16B11B1044688472046416D0029CE
:101EF0003DD0416DC90734D0042180F83510016808
:101F00004FEA98220B6823F001030B60019B013319
:101F1000019393421AD80B68DB0717D0019B01335A
:101F20000193934212D80B68DB070FD0019B01335A
:101F3000019393420AD80B68DB0707D0019B01335A
:101F40000193934202D80B68DB07DFD10968C90708
:101F50004FF0030108BF012180F83510002180F8FF
:101F60003410C16C19B102B0BDE8F047084702B0A7
:101F7000BDE8F087D90301D4416CF3E7C16BF1E709
:101F80000B6813E60B6880E62DE9F041044601F08A
:101F900063FCECB140F26F4805462068C4F20208C9
:101FA000404518DC9F21C4F2020188422EDC5721F3
:101FB000C4F20201884254DC1021C4F202018842BA
:101FC0007ED02821C4F20201884279D0402172E0FB
:101FD0000120BDE8F08145F22F41C5F6020188429B
:101FE00027DC40F2B741C4F20201884245DC40F2EE
:101FF0007041C4F20201884262D040F28841C4F2CA
:10200000020188425CD040F2A04154E040F22741F6
:10201000C4F20201884240DCA021C4F202018842DD
:102020004ED0B821C4F20201884249D040F210419A
:1020300041E045F26B41C5F60201884200F3C780DA
:1020400045F23041C5F60201884200F0D28045F2E7
:102050004441C5F60201884200F0CB8045F2584168
:10206000C3E05821C4F20201884229D07021C4F291
:102070000201884224D088211DE040F2B841C4F218
:10208000020188421CD045F20841C5F6020188428F
:1020900000F0AF8045F21C41A7E040F22841C4F2B5
:1020A000020188420CD040F24041C4F20201884251
:1020B00006D040F25841C4F20201884240F0D58077
:1020C000022184F83510002184F83410016821F0D1
:1020D0000101016020680168C9070CD001F0BCFB58
:1020E000401B0628F6D320206065032084F83500C5
:1020F0000120BDE8F08148F23F0204F108060168C2
:10210000CFF61062114065694CCE1143A2691943A4
:10211000E3693143266A0D43616A2B43042943EA8C
:10212000060343EA020303D1D4E90B652E4333438C
:102130006568A5F12906292E00F21382DFE816F062
:102140002A002A002A002A002A002A00110211026D
:1021500011021102110211021102110211021102E7
:102160001102110211021102110211022A002A00A9
:102170002A002A0011021102110211022A002A006B
:102180001102110211021102110211022A002A0089
:102190002A002A0043F4801303600429436923F0D2
:1021A000070341EA030140F07B80D4E90A53002B86
:1021B00041EA050174D0B2F5005F58D0002A62D11F
:1021C000022D63D0012D58D0002D5FD068E045F27C
:1021D0006C41C5F6020188420BD045F28041C5F63C
:1021E0000201884205D045F29441C5F602018842B9
:1021F0003BD104F1080E022184F83510002184F847
:1022000034100168A3699EE80450A2F18005E769D3
:10221000B5FA85F566696D09402A4FEA853543EAC6
:1022200007026FF3101142EA060208BF102541EAC7
:10223000DC0142EA0E02236A294341EAD20141EA63
:10224000131140F80819C0B2CD2148433C2101EADE
:102250009020E0652046FEF7BFFAE16D012201F013
:102260001F0102FA01F1416025E040203CE7032D07
:1022700016D8DFE805F00E0B0E02A3F1C072B2FA19
:1022800082F2520904E0032D03D309D1C3F30062A3
:1022900032B140206065012084F83500BDE8F0814E
:1022A00041612046FEF798FAE16D3F2201F01F01DF
:1022B00002FA01F181602068404519DC9F21C4F2D7
:1022C0000201884231DC5721C4F20201884256DC07
:1022D0001021C4F20201884200F092802821C4F249
:1022E0000201884200F08C804021C4F2020184E0A7
:1022F00045F22F41C5F6020188422BDC40F2B7417E
:10230000C4F20201884248DC40F27041C4F202018A
:10231000884275D040F28841C4F2020188426FD0F1
:1023200040F2A041C4F2020167E040F22741C4F24A
:102330000201884240DCA021C4F2020188425FD041
:10234000B821C4F2020188425AD040F21041C4F2CE
:10235000020152E045F26B41C5F6020188423CDCC5
:1023600045F23041C5F60201884249D045F2444168
:10237000C5F60201884243D045F258413BE058215E
:10238000C4F2020188423BD07021C4F202018842AB
:1023900036D08821C4F202012FE040F2B841C4F2E5
:1023A000020188422CD045F20841C5F6020188425C
:1023B00026D045F21C411EE040F22841C4F2020141
:1023C00088421DD040F24041C4F20201884217D039
:1023D00040F25841C4F202010FE045F26C41C5F6EB
:1023E000020188420CD045F29441C5F602018842B0
:1023F00006D045F28041C5F60201884240F0D980FE
:1024000045F2574C45F6FC0EC5F6020CC5F6020E19
:1024100060450EDC45F22F41C5F60201884217DC0B
:1024200045F20841C5F60201884226D045F21C411A
:102430001FE045F27F41C5F60201884211DC45F2FA
:102440005841C5F60201884217D045F26C4110E0B0
:1024500045F23041C5F6020188420ED045F24441B2
:1024600007E045F29441C5F60201884205D045F2E5
:102470008041C5F60201884244D100F0FC014CF6CF
:10248000CD420839CCF6CC42A1FB0212AEF1FC05DC
:10249000AEF17C061309A26803F01F01802A4FF0F9
:1024A000010205EB8305256602FA01F26666A26663
:1024B00004D100206060286072601CE06368D9B2BB
:1024C0005F1E072F2960726015D84E1E082E17D286
:1024D00060450EF1440235DC45F22F41C5F602019C
:1024E000884245DC45F20841C5F60201884254D0D5
:1024F00045F21C414DE000206067C4E91B0058E034
:10250000E06E51E000F0F8014AF6AB221039CAF64D
:10251000AA22A1FB021240F20F43C4F202030825D3
:102520001109984203F1AA060B4688BF05EB121366
:1025300040F60005B042C4F2020505F1800628BF4E
:102540000B46A8E745F27F41C5F60201884218DC38
:1025500045F25841C5F6020188421ED045F26C4151
:1025600017E025F00307742F08BF43F4801313E628
:1025700045F23041C5F6020188420ED045F2444191
:1025800007E045F28041C5F60201884205D045F2D8
:102590009441C5F60201884212D10EEB830001215D
:1025A000E066B1402267616700210160D4E91C0147
:1025B000416000206065012184F83510BDE8F0819C
:1025C00040F60000C4F2020000F1FC0E00F5A0721B
:1025D000E3E700000000000030B110B590F834408F
:1025E000012C03D1022010BD01207047012480F886
:1025F000344090F83540012C2BD1022480F835402E
:1026000000244465D0F800C0DCF8004024F0010448
:10261000CCF800400446FEF76BF940F20F4C2068FE
:10262000C4F2020C40F26F416045C4F2020118DCB2
:102630006F23C4F20203984224DC3F23C4F2020356
:1026400098423ADC1023C4F20203984259D028235E
:1026500052E04FF400614165002180F83410012000
:1026600010BD88421ADC40F23F43C4F20203984294
:102670002ADC40F21043C4F20203984241D040F2F7
:10268000284339E09F23C4F20203984225DC7023DB
:10269000C4F20203984234D088232DE040F29F43D5
:1026A000C4F2020398421FDC40F27043C4F20203FA
:1026B000984226D040F288431EE04023C4F2020331
:1026C00098421ED0582317E040F24043C4F2020360
:1026D000984216D040F258430EE0A023C4F2020301
:1026E00098420ED0B82307E040F2B843C4F2020388
:1026F000984206D040F2A043C4F20203984240F050
:10270000238103680B2262F344030360226C1AB135
:10271000082302681A430260884219DC9F22C4F22F
:102720000202904231DC5722C4F20202904256DC8F
:102730001022C4F20202904200F091802822C4F2DA
:102740000202904200F08B804022C4F2020284E038
:1027500045F22F42C5F6020290422BDC40F2B7420E
:10276000C4F20202904248DC40F27042C4F202021B
:10277000904274D040F28842C4F2020290426ED07D
:1027800040F2A042C4F2020267E040F22742C4F2E3
:102790000202904240DCA022C4F2020290425ED0CB
:1027A000B822C4F20202904259D040F21042C4F260
:1027B000020252E045F26B42C5F6020290423CDC56
:1027C00045F23042C5F60202904248D045F24442FA
:1027D000C5F60202904242D045F258423BE05822F0
:1027E000C4F2020290423AD07022C4F20202904235
:1027F00035D08822C4F202022FE040F2B842C4F27F
:10280000020290422BD045F20842C5F602029042E5
:1028100025D045F21C421EE040F22842C4F20202DA
:1028200090421CD040F24042C4F20202904216D0C4
:1028300040F25842C4F202020FE045F26C42C5F683
:10284000020290420BD045F29442C5F60202904239
:1028500005D045F28042C5F6020290426ED1236E49
:102860001A68D20303D51A6842F480721A60E36EC4
:102870001BB11A6842F480721A60604510DC6F2147
:10288000C4F2020188421CDC3F21C4F202018842EA
:1028900032DC1021C4F2020188424FD028214AE0E4
:1028A00088421ADC40F23F41C4F2020188422ADC2D
:1028B00040F21041C4F2020188423FD040F2284168
:1028C00039E09F21C4F20201884225DC7021C4F264
:1028D0000201884232D088212DE040F29F41C4F2AB
:1028E000020188421FDC40F27041C4F202018842BA
:1028F00024D040F288411EE04021C4F20201884207
:102900001CD0582117E040F24041C4F20201884235
:1029100014D040F258410EE0A021C4F202018842D6
:102920000CD0B82107E040F2B841C4F2020188425D
:1029300004D040F2A041C4F202018842016841F093
:1029400001010160002010BD0268052363F343020A
:102950000260226C002A3FF4DFAE0423D9E60000B7
:1029600090F89830013B012B0BD80068836D0B4227
:102970000CD0836D0B408B420CD1C36D43F002032E
:1029800009E000F19C010120022221E0C36D43F027
:10299000010300E00323C3658B0504D5D0F8E030C4
:1029A0001343C0F8E0304B0504D5D0F8E4301A43A7
:1029B000C0F8E4204FF6FF72436DC3F6CF720A40B1
:1029C0001A4342658A0F4AF614010020C4F200013E
:1029D0000B681A430A60704790F89830022B1BD19D
:1029E000B0B50368D3F8C05015F07C5F1CD0D3F8A5
:1029F000C450AD021DD4D3F8C4300546C3F304441B
:102A00002346FEF795F928680121A140C0F8D010AF
:102A10000020C5F89410B0BDD0F89C1041F008011A
:102A2000C0F89C1001207047D0F89C1041F02001A4
:102A300003E0D0F89C1041F40071C0F89C10012014
:102A4000B0BD000000000000704700000000000062
:102A500090F89830012B0ED1012900684FEA0262EC
:102A600011D0C9B9D0F8F01021F07C511143C0F851
:102A7000F01000207047D0F89C1041F00401C0F81D
:102A80009C1001207047D0F8A01021F0FE411143A6
:102A9000C0F8A01000207047D0F8B01021F0FE411F
:102AA0001143C0F8B0100020704700000000000083
:102AB00090F89820013A012A0BD880B50A68002ABC
:102AC000CA680ED00B69072A43EA427E16D18B6989
:102AD00019E0D0F89C1041F00201C0F89C100120D0
:102AE0007047072A18D10A69D1E906C3120442EADD
:102AF000032242EA0C0242F0605217E0D1F808C00B
:102B00004B6943EA8C73006F496800EBC10240F8DF
:102B100031E05360002080BD8B68D1E904CE9B0773
:102B200043EAC26242EA0C4242EA0E024968C06EBF
:102B300040F82120002080BD90F898C0BCF1010F22
:102B40000DD19200006842EA0111DDF800C041EAAF
:102B5000430141EA0C01C0F8801000207047D0F812
:102B60009C1041F00401C0F89C1001207047000047
:102B700070470000000000007047000000000000E7
:102B80002DE9F04390F89870022F11D1402914D10B
:102B90000668D6F8A07017F4FE0F2AD0D6F8A470F5
:102BA0007F062BD0D6F8A470FF0130D4002731E087
:102BB000D0F89C1041F0080124E041290FD10668AB
:102BC000D6F8B07017F4FE0F13D0D6F8B4707F06A5
:102BD00014D0D6F8B470FF0125D4002726E0076D85
:102BE0008F4206D900F17C05466D4FF0000C0F4670
:102BF00025E0D0F89C1041F0200103E0D0F89C10B3
:102C000041F48071C0F89C100120BDE8F083D6F833
:102C1000A070FF0FD6F8A46000F17405C6F3052676
:102C20003E44476C0AE0D6F8B070FF0FD6F8B460A7
:102C300000F17805C6F305263E44C76CB44607FB91
:102C400006F42D6805EB840E55F8247017F08047C4
:102C5000576055F8247027F0604608BFC7F38A46CE
:102C6000166055F8247007F00057976055F8244017
:102C700004F000441461BEF80440D461BEF806407C
:102C800014F00F04D460DEF8044004F4801454619E
:102C9000DEF8044004F4001494619EF8074004F048
:102CA0007F041462DEF804404FEAD474546228D0E2
:102CB00043F274580024C0F601080EEB0406651CAC
:102CC000377A1F55D76818F80770BD4219D21F19F7
:102CD000757A7D70D56818F80590A51C4D453FBFE5
:102CE000B57ABD70D56818F805903CBFE51C4D4518
:102CF00007D2F57A0434FD70D56818F80550AC4257
:102D0000DBD3402905D10068C0F8A8C00020BDE889
:102D1000F083412905D10068C0F8B8C00020BDE8A3
:102D2000F0831F2908D80068012202FA01F1C0F8D7
:102D300098100020BDE8F083006801F01F01012217
:102D400002FA01F1C0F89C100020BDE8F0830000F9
:102D500070470000000000002DE9F04F87B00446E6
:102D60004AF61000C4F2000001684AF61400C4F2EA
:102D70000000026820680A40D0F850B0D0F85490A3
:102D8000056D466D036D0293436D0193036D0693CC
:102D9000436D0593036D0493436D0393D0F854A0E2
:102DA000D0F850805FEACA5311D518F480710ED064
:102DB0004FF4807101654AF610010020C4F2000151
:102DC000174608602046FFF7C3FF3A4620685FEACF
:102DD0004A510BEA090B4FEA827718D54AF61009D7
:102DE00018F48061C4F2000915D0D0F8DC1000920C
:102DF000D0F8E42011404FF4806202650020C9F849
:102E00000000204600F02CFC009A206803E04AF6FF
:102E10001009C4F2000905EA06050BF4704657B123
:102E20000021016502F00300C9F800002046394680
:102E3000FFF70AFE2068DDE9012101EA020705F03B
:102E40000F0546B106650020C9F80000204631464E
:102E500000F00EFC206807F0F00645B10565002083
:102E6000C9F800002046294600F0A6FB206846B1BC
:102E700006650020C9F800002046314600F0B8FB86
:102E800020685FEA0A510CD518F4006109D04FF4AC
:102E9000006101650020C9F80000204600F0ECFB4D
:102EA00020685FEA8A5111D518F400710ED0D0F86D
:102EB000D810D0F8E02011404FF4007202650020D5
:102EC000C9F80000204600F0CFFB20685FEA0A3115
:102ED0000CD518F4002109D04FF400210165002021
:102EE000C9F80000204600F063FB20685FEACA31A1
:102EF0000CD518F4803109D04FF4803101650020E1
:102F0000C9F80000204600F0A7FB20685FEA4A31BC
:102F1000DDE9032101EA02050CD518F4802109D06E
:102F20004FF4802101650020C9F80000204600F020
:102F30008FFB20685FEA8A31DDE9052102EA0102A0
:102F400005F060710ED518F400330BD04FF4003348
:102F500003650023C9F80030D4F89C3043F08003A7
:102F6000C4F89C3002F0715539B101650020C9F8F0
:102F700000002046FFF700FE206845B105650021EE
:102F8000C9F80010D4F89C102943C4F89C10A9F586
:102F90000161884209D0D4F89C00002868D02046FE
:102FA00007B0BDE8F04FFFF7E3BD606881688907AF
:102FB000F1D0016A426A036A476A114003EA0702D4
:102FC00002F03005D0F82080D0F82490D0F820B05E
:102FD000466A026A069211F00F01426A0592D0F821
:102FE00024A0026A049203D00162204600F024FB70
:102FF00008EA09072DB1606829460562204600F0FD
:1030000023FB5FEA4A6006EA0B0607F4C0750ED59B
:10301000049810F040000AD060684023C16BC26B76
:10302000090C02F03F020362204600F009FBDDE9D3
:10303000051000EA010706F4FC462DB16068294638
:103040000562204600F0F4FA07F4F02036B161681A
:103050000E62D4F89C103143C4F89C1000289AD01A
:1030600061680862D4F89C100843C4F89C0092E799
:1030700007B0BDE8F08F000040B32DE9F04F83B0FA
:103080004AF200080446C4F200080068404502D134
:1030900008F58071616094F8981031B9002084F8C7
:1030A0009900204600F0E0F92068816921F01001C4
:1030B000816100F0D1FB054620688169090707D5C9
:1030C00000F0CAFB401B0B28F6D312E0012070472A
:1030D000816941F00101816100F0BEFB054600BF3E
:1030E00020688169C90711D100F0B6FB401B0B288D
:1030F000F6D30120D4F89C100843C4F89C000320A8
:1031000084F89800012003B0BDE8F08F816941F098
:1031100002018161217C826922F04002012918BFED
:1031200040328261617C826922F48042012908BFB9
:1031300002F580428261A17C826922F480520129D9
:1031400018BF02F580528261816921F44073D4E98D
:1031500002120B438361836923F0A4038361036933
:1031600023F0100303619AB1012A0DD0022A09D07D
:103170008369032A43F080038361036943F01002EB
:10318000026105D1202200E0042283691A43826192
:10319000D4E90572E369561E6FF0FF02256A02EB5F
:1031A0000323B1F5407F43EA4663A5F1010646EAF1
:1031B000030640F20003CFF6FF7303EB074746EA2E
:1031C0000701C16110D1D4E90B65D4E90917013FAA
:1031D00002EB06226FF00F063A4306EB05173A435F
:1031E00003EB01411143C160236E2BB1616ED0F836
:1031F000C0201143C0F8C010E16DCDE90113D942E0
:1032000043F21821C0F6010109D0D0F8C820A36EFE
:1032100022F0070251F823301A43C0F8C820D4F82E
:1032200040C0BCF1000F09D0D0F8BC20636C22F084
:10323000070251F823301A43C0F8BC20D4F848B034
:10324000BBF1000F0AD0D0F8BC20E36C22F0700272
:1032500051F8233042EA0312C0F8BC20D4F850A041
:10326000BAF1000F0AD0D0F8BC20636D22F4E062FE
:1032700051F8231042EA0121C0F8BC10404504D1A6
:1032800061688A6822F003028A600021C4F8941001
:10329000C4F89C10012184F8981004F13409D0F886
:1032A00084104FF6FC729143656C99E80C0200950E
:1032B00041EA8201C0F88410D0F8841021F47F0123
:1032C00041EA0341C0F884109918D0F888306FF3B0
:1032D0008F0343EA8103C0F88830D0F8883023F4A4
:1032E000FE0343EA0943C0F8883001EB4903D0F8F4
:1032F000A0606FF38F0646EA8306C0F8A060D0F89E
:10330000A06026F4FE0646EA0C46C0F8A06005FB65
:103310000C36D0F8B0306FF38F0343EA8603C0F861
:10332000B030D0F8B03023F4FE0343EA0B43C0F8CA
:10333000B030E36CD0F8AC506FF38F0503FB0B6635
:1033400045EA8605C0F8AC50D4F8548008FB0A65FD
:10335000D0F8F0606FF38F0646EA8506C0F8F0609B
:10336000D0F8F0E0A66D2EF47C1747EA0647C0F8C7
:10337000F070F70007EB8507D0F8C0506FF38F05AA
:103380002F43C0F8C070D0F8C070009DDDF804E095
:1033900027F47C1705FB0CFC4AF2000547EA0E47B0
:1033A000C0F8C070C4F2000503FB0BC305F540670D
:1033B000D0F8C05007EB820207EB810125F07C5763
:1033C000029D47EA0567C0F8C07001EBC90008FB21
:1033D0000A372167A16E00EB8C0C606700EB83035A
:1033E000E266C4E91EC30EFB01F300EB87006943EC
:1033F000C4F8800000EBC600C4F8840000EB830032
:10340000C4F8880000EB81004DF2FC31C4F20001E9
:10341000C4F89000884201D920206BE682421ED277
:103420001146002041F8040BD4F890309942BFF4C3
:103430006AAE506002F10801D4F8903099423FBF63
:10344000906002F10C01D4F890309942BFF45BAE69
:10345000D0601032D4F890108A42E1D353E60020B5
:1034600003B0BDE8F08F0000B0B5B6B0044602A8C6
:10347000B8210025CDE93455CDE932553195FCF719
:103480008BFF4AF200412068C4F2000188423ED01E
:103490004AF20001C4F20001884240F08780002017
:1034A00003904FF4004002904FF080501D9002A80E
:1034B00000F08EFC08B1FDF713FC40F2BC2144F291
:1034C000E040C2F20041C5F602000A68002A02F19B
:1034D00001020A6008D1C16841F48071C160C1680D
:1034E00001F48071019101990168152441F00801EE
:1034F00001600068132500F008000190019840F277
:103500000040C5F60200032100F5006033E04FF4EF
:10351000004002904FF080501D9002A8039500F0EB
:1035200057FC08B1FDF7DCFB40F2BC2144F2E0405F
:10353000C2F20041C5F602000A68002A02F1010247
:103540000A6008D1C16841F48071C160C16801F4AA
:103550008071019101990168162441F00201016016
:103560000068142500F002000190019840F200402C
:103570006021C5F602003191022132910021CDE98E
:1035800033110921359131A900F08AF80521002273
:10359000284600F07DFA284600F066FA0521002250
:1035A000204600F075FA204600F05EFA36B0B0BD55
:1035B0007047000000000000C90708BF704740F6D0
:1035C000E051C2F20041884206D040F68061C2F26A
:1035D0000041884206D0704740F6E050C2F20040F9
:1035E000FDF7E6BB40F68060C2F20040FDF780BC0C
:1035F000704700000000000090F8981001290CD1DD
:10360000022180F8981001688A6922F001028A611B
:103610000021C0F89C1000207047D0F89C1041F0A9
:103620000401C0F89C100120704700000000000059
:10363000704700000000000070470000000000001C
:10364000704700000000000070470000000000000C
:1036500070470000000000007047000000000000FC
:1036600070470000000000007047000000000000EC
:1036700070470000000000007047000000000000DC
:1036800070470000000000008821C5F600010A68AC
:10369000024208BF70470860FFF7F2BF0000000059
:1036A0002DE9F04F83B00F68002F00F0C88000F1C3
:1036B000264642F2004506F1FF76C5F602050A22CB
:1036C000A8424FEAB62540F2040C08BF092200F1D7
:1036D00020030093082DC5F6000C38BF4FEAB62230
:1036E000002400264FF0000801920AE008F10108CA
:1036F0000F6837FA08F206F1020604F1040400F03C
:103700009E80012202FA08FE17EA0E09EED0D1F8D7
:1037100004B003220BF00307B2407D1E6FEA020AD9
:10372000012D11D88268CD6802EA0A02B5402A4309
:103730008260CBF30015426822EA0E0205FA08F512
:103740002A43426004E000BF032F01D103271FE09A
:10375000C2688D6802EA0A02B540022F42EA0502F9
:10376000C26015D16FF0030204F01C0502EA580B89
:10377000009A0F2352F80BE0AB400F692EEA0303C7
:10378000AF403B4342F80B30D1F804B00BF00307D5
:10379000026807FA06F302EA0A021BF4403F42EA13
:1037A00003020260A2D044F2F44340F2084EC5F690
:1037B0000203C5F6000E0F251A6842F002021A60D5
:1037C0001A6802F00202029228F00302029B04F03F
:1037D0000C0352F80E709D40AF43019D05FA03F3B0
:1037E0003B4342F80E304FF0B04EDEF800204B68FD
:1037F00042EA0907DD0258BF22EA09079D02CEF816
:103800000070DCF8002042EA090758BF22EA0907E5
:103810009D03CCF80070DCF8802042EA090758BF0D
:1038200022EA0907DB03CCF88070DCF87C2042EA4E
:10383000090758BF22EA0907CCF87C7056E703B0A5
:10384000BDE8F08F00000000002A08BF0904816174
:10385000704700000000000045F62C20C2F2004036
:10386000006870470000000040F2101045F62C215F
:10387000C2F20040C2F2004100780A6810440860B9
:10388000704700000000000080B5032000F030F910
:1038900001F01EF944F2184143F29043C5F60201CB
:1038A000C0F601030A68C2F303229A5C096801F0BA
:1038B0000F0102F01F02595CD04040F2A802C2F290
:1038C000004201F01F0120FA01F1116040F2A40151
:1038D000C2F2004108600F2000F00AF800281CBF67
:1038E000012080BD00F0A8F8002080BD000000008D
:1038F0000F2847D8B0B58AB00446372000222146A9
:10390000002500F0C5F8372000F0AEF840F21410A2
:10391000C2F20040046044F2E840C5F602000168CB
:1039200041F020010160006801A900F02000029030
:10393000029802A801F018F8079C002C18BF012477
:1039400001F066F84DF68361A040C4F21B3141F2EC
:103950000042A0FB010140F6F470C2F200404FF0BB
:10396000FF33C4F20002026003EB9141C0E901158C
:1039700040F2E731C0E9031502F0E6F820B101207A
:103980000AB0B0BD0120704740F6F470C2F20040AA
:1039900002F00EF90AB0B0BD10B54EF6A05E437845
:1039A000CEF2000E90F800C04EF8083CDEF8003071
:1039B00023F00103CEF8003043684EF8043C037B4B
:1039C000C27A817A447B120642EA0372837B42EA1E
:1039D000C141C27B41EA8441447A41EA4341007AD1
:1039E00041EA024141EA042141EA400040EA0C0078
:1039F000CEF8000010BD00004EF62450CEF20000BC
:103A0000BFF35F8F016821F48031016000210167FD
:103A100070470000000000004EF6245140F0010005
:103A2000CEF200010867086840F480300860BFF3F8
:103A30004F8FBFF36F8F704781B044F2F440002284
:103A4000C5F60200016841F00201016000680F2123
:103A500000F0020000906FF00100009B01B000F048
:103A600017B8000000000000002848BF704700F0B1
:103A70001F01012202FA01F14EF20012C0F34A10B6
:103A8000CEF2000242F82010704700000000000053
:103A900070B54EF60C5C4FF0FF36CEF2000C00F124
:103AA000604505F56445DCF80030C3F3022E8EF066
:103AB0000703042B28BF0423BEF1030406FA03F313
:103AC00021EA030100F00F0338BF0024043B002863
:103AD000634406FA04F048BF03F10C05A14022EA52
:103AE000000008430001287070BD000000000000C5
:103AF0004EF60C514FF6FF03CEF200010A681A4051
:103B000060F30A2242F0806040F0FD700860704768
:103B1000B0B544F60C05C5F60205296849072968C1
:103B200005D401F00701081A18BF0120B0BD21F02B
:103B3000070108432860FFF78FFE044655F8080C7C
:103B4000800407D4FFF788FE001BB0F57A7FF5D913
:103B50000120B0BD0020B0BD80B500F031FF44F2BF
:103B6000204143F29042C5F60201C0F60102096805
:103B7000C1F30211515C01F01F01C84080BD00007B
:103B800080B544F2384EC5F6020E5EF8103C5EF881
:103B9000101C5EF80C2CC1F3053CDEF80410BCF1DF
:103BA000000F15D0C908D20601EAE2716FF35F3148
:103BB00000EE101A03F003010229B8EE400A0CD0FF
:103BC00071B95EF8381C89060DD49FED351A18E0DE
:103BD00000218160C0E9001180BD9FED301A10E026
:103BE0009FED2D1A0DE05EF8381C49F20002C0F27C
:103BF000D032C1F3C10122FA01F101EE101AB8EE80
:103C0000411ADEF800109FED273A6FF35F2102EEB4
:103C1000101ADEF80010C1F34621B8EE422A00EE79
:103C2000032A00EE10CAB7EE003AB8EE400A81EE61
:103C3000000A32EE031A02EE101AB8EE422A20EE03
:103C4000010A32EE031A80EE011ABCEEC11A80EDB1
:103C5000001ADEF80010C1F3064101EE101AB8EEAA
:103C6000411A31EE031A80EE011ABCEEC11A80ED42
:103C7000011ADEF80010C1F3066101EE101AB8EE69
:103C8000411A31EE031A80EE010ABCEEC00A10EEB2
:103C9000101A816080BD00BF0024744A001BB74B1E
:103CA0000024744C0000003980B544F2404EC5F643
:103CB000020E5EF8183C5EF8181C5EF8142CC1F376
:103CC000055CDEF80410BCF1000F15D0C908D20560
:103CD00001EAE2716FF35F3100EE101A03F00301A5
:103CE0000229B8EE400A0CD071B95EF8401C890672
:103CF0000DD49FED351A18E000218160C0E9001154
:103D000080BD9FED301A10E09FED2D1A0DE05EF89A
:103D1000401C49F20002C0F2D032C1F3C10122FAC4
:103D200001F101EE101AB8EE411ADEF800109FED15
:103D3000273A6FF35F2102EE101ADEF80010C1F38C
:103D40004621B8EE422A00EE032A00EE10CAB7EE72
:103D5000003AB8EE400A81EE000A32EE031A02EE93
:103D6000101AB8EE422A20EE010A32EE031A80EE53
:103D7000011ABCEEC11A80ED001ADEF80010C1F382
:103D8000064101EE101AB8EE411A31EE031A80EE28
:103D9000011ABCEEC11A80ED011ADEF80010C1F361
:103DA000066101EE101AB8EE411A31EE031A80EEE8
:103DB000010ABCEEC00A10EE101A816080BD00BF7F
:103DC0000024744A001BB74B0024744C00000039D7
:103DD0002DE9F0470446C07844F22C480007C5F6A8
:103DE000020824D5606E4FEA3051032936D8DFE847
:103DF00001F002090F17D8F8001041F40031C8F89B
:103E000000100DE004F10800022105F0F5FF04E0C8
:103E100004F12800022106F07FF8064640B9606EE2
:103E2000D8F8241021F440110843C8F824000026D3
:103E30006078C00701D1354629E0A06D04283CD840
:103E40003546DFE800F003130D191900D8F800001B
:103E5000354640F40030C8F800000DE00126E7E7E1
:103E600004F12800002106F057F804E004F10800EE
:103E7000002105F0C1FF05462F464DB9D8F82400B2
:103E8000A16D20F0070000250843C8F8240037463C
:103E9000607840072FD5D4F8A4004FEA7050052869
:103EA00014D8DFE800F003160D1C1C1CD8F8000025
:103EB00040F40030C8F8000011E001250127E7E7D1
:103EC00004F12800002106F027F807E0012501266B
:103ED00012E004F10800002105F08EFF05462E4691
:103EE00055B9D8F82C00D4F8A41020F460000025AF
:103EF0000843C8F82C003E46607800072CD5D4F85B
:103F0000A8004FEA3060052811D8DFE800F003135D
:103F10000A191919D8F8000040F40030C8F8000058
:103F20000EE004F12800002105F0F6FF07E001256E
:103F3000012712E004F10800002105F05DFF0546AD
:103F40002F4655B9D8F82C00D4F8A81020F0E0601E
:103F500000250843C8F82C003746E078800720D5B4
:103F6000E06C4FEA3010032830D8DFE800F00F0291
:103F7000090FD8F8000040F40030C8F8000005E050
:103F800004F10800022105F037FF05462E464DB921
:103F9000D8F82000E16C20F0300000250843C8F874
:103FA00020003E466078C0062AD5E06D4FEA3030EA
:103FB00004283AD8DFE800F003130D191900D8F8E7
:103FC000000040F40030C8F800000EE00125012692
:103FD000E8E704F12800002105F09EFF04E004F169
:103FE0000800002105F008FF05462F464DB9D8F816
:103FF0002400E16D20F4E04000250843C8F82400C7
:1040000037466078800624D5206E4FEA3040052878
:1040100000F24B83DFE800F012030C12121204F1DD
:104020000800012105F0E8FE07E001250127E8E787
:1040300004F12800012105F06FFF05462E464DB919
:10404000D8F82400216E20F4E02000250843C8F8A9
:1040500024003E466078400623D5D4F8AC004FEAF1
:104060003070052800F22583DFE800F00F03090F08
:104070000F0F04F10800012105F0BEFE04E004F179
:104080002800012105F048FF05462F4655B9D8F80C
:104090002C00D4F8AC1020F0E04000250843C8F80C
:1040A0002C003746607800061FD5E06E90B1B0F165
:1040B000005F09D0B0F1805F29D1D8F8000040F44A
:1040C0000030C8F8000005E004F10800012105F007
:1040D00093FE05462E464DB9D8F82400E16E20F037
:1040E000405000250843C8F824003E46E078C00749
:1040F00021D0A06C03284FD8DFE800F012020C1288
:10410000D8F8000040F40030C8F8000008E00125AD
:104110000126EBE704F10800022105F06DFE0546DB
:10412000A9464DB9D8F82000A16C20F00300002565
:104130000843C8F82000B146A078400601D44F4695
:1041400016E0D8F8D40340F48070C8F8D403FFF721
:1041500083FB0646D8F8D403C00507D4FFF77CFBE1
:10416000801B6428F6D90325032701E02F46BDB143
:104170002078C00756D0A06F4FEAF000052800F263
:104180009B82DFE800F044033E44444404F108000D
:10419000012105F031FE39E001254FF00109CBE79F
:1041A000D8F84410D4F8B000414011F4407F11D049
:1041B000D8F84410D8F8442042F48032C8F844209B
:1041C000D8F8442021F4407122F48032C8F8442009
:1041D000C8F84410B0F5807F40F08282FFF73CFBC6
:1041E000064641F2883A0325032700BFD8F8440069
:1041F000800700F17382FFF72FFB801B5045F5D934
:10420000B6E704F12800012105F086FE05462E469A
:104210004DB9D8F82800A16F20F0380000250843D8
:10422000C8F828003E46207880071FD5606F052813
:1042300000F24582DFE800F00F03090F0F0F04F1D1
:104240000800012105F0D8FD04E004F12800012157
:1042500005F062FE05462F464DB9D8F82800616F7B
:1042600020F0070000250843C8F8280037462078CA
:10427000400721D5D4F89000052800F22382DFE81A
:1042800000F00F03090F0F0F04F10800012105F0E2
:10429000B3FD04E004F12800012105F03DFE0546D0
:1042A0002E4655B9D8F82C00D4F8901020F007000D
:1042B00000250843C8F82C003E462078800623D508
:1042C000D4F88C004FEA3070052800F2FE81DFE858
:1042D00000F00F03090F0F0F04F10800002105F093
:1042E0008BFD04E004F12800022105F015FE0546CF
:1042F0002F4655B9D8F82800D4F88C1020F0E040AB
:1043000000250843C8F8280037462078400623D502
:10431000D4F898004FEAB020052800F2D981DFE8F0
:1043200000F00F03090F0F0F04F10800002105F042
:1043300063FD04E004F12800022105F0EDFD0546CF
:104340002E4655B9D8F82C00D4F8981020F4E05037
:1043500000250843C8F82C003E462078000623D5E7
:10436000D4F89C004FEA7030052800F2B481DFE8F1
:1043700000F00F03090F0F0F04F10800002105F0F2
:104380003BFD04E004F12800022105F0C5FD0546CF
:104390002F4655B9D8F82C00D4F89C1020F4604072
:1043A00000250843C8F82C0037462068010704D4CC
:1043B000C1061BD4000332D454E0D4F88000B0F519
:1043C000805F09D104F12800022105F0A5FD002835
:1043D00018BF0127D4F88000D8F8281021F44051E4
:1043E0000843C8F828002068C106E3D5D4F8940033
:1043F000B0F5807F09D104F12800022105F08CFD81
:10440000002818BF0127D4F89400D8F82C1021F404
:1044100040710843C8F82C002068000322D5D4F866
:10442000A000B0F5003F11D0B0F5803F08D00028C3
:1044300040F0308104F10800002105F0DDFC04E0CB
:1044400004F12800022105F067FD05462E4655B906
:10445000D8F82C00D4F8A01020F4403000250843F0
:10446000C8F82C003E46A078400724D5D4F8840034
:10447000B0F5401F13D0B0F5001F0AD0B0F5801F73
:1044800040F00B81D8F8000040F40030C8F800007C
:1044900005E004F12800012105F03EFD05462F4608
:1044A00055B9D8F82800D4F8841020F4401000251D
:1044B0000843C8F828003746A078C00701D13E4617
:1044C0001FE0206DB0F5803F07D0C0B9D8F80000DC
:1044D00040F40030C8F8000005E004F108000221B3
:1044E00005F08AFC05462E465DB9D8F82000216DFE
:1044F00020F4803000250843C8F82000DFE70125BC
:1045000001262168880003D460688A030CD44BE03C
:1045100004F12800022105F0FFFC002818BF012645
:10452000D4E900108A033FD5E26F6FF0010303EB7B
:104530003223022B0BD34FEA322343B1012B40F03D
:10454000AF80D8F8003043F40033C8F8003025B30A
:10455000CA022CD48A0234D44A003CD4CA0F49D1AE
:10456000090251D4C1075AD1810763D441076CD4E1
:10457000010776D4C10600F18080800607D504F1DA
:104580002800022105F0C8FC002818BF0125002DD5
:1045900018BF01252846BDE8F087D8F8283023F455
:1045A00040731A43C8F828203546CA02D2D5D8F835
:1045B0002420236F22F000421A43C8F824208A02E4
:1045C000CAD5D8F82420A36E22F080721A43C8F806
:1045D00024204A00C2D558F81C2C22F4004248F886
:1045E0001C2CD4F8B42058F81C3C1A4348F81C2C56
:1045F000CA0FB5D0D8F82020636D22F040521A437C
:10460000C8F820200902ADD5D8F82810D4F88820A1
:1046100021F440011143C8F82810C107A4D004F1C7
:104620000800002105F0E8FB002818BF0546606877
:1046300081079BD504F10800012105F0DDFB00286E
:1046400018BF05466068410792D504F108000221B1
:1046500005F0D2FB002818BF0546606801077FF50A
:1046600089AF04F12800002105F056FC002818BF8E
:1046700005466068C1067FF580AF04F1280001217E
:1046800005F04AFC002818BF0546606880063FF523
:1046900076AF7CE701250126E5E6012501270BE73A
:1046A0000125CA027FF556AF81E701250126FFF7F4
:1046B000D1BC01250127F5E401250126B3E501253B
:1046C0000127D4E501250126F7E5012501271CE690
:1046D0000125012641E60125012766E6D4F8B00050
:1046E0004FF6CF7358F81C2CC0F2FF0300F4407152
:1046F00022F47C5203EA10136FF31F30B1F5407FB0
:1047000008BF1A43002548F81C2CD8F84410084369
:10471000C8F8440013E500002DE9F04381B00028FB
:1047200000F01C8142F200090446C5F20029D9F8C4
:10473000000000F00F0088420DD2D9F8000020F0F0
:104740000F000843C9F80000D9F8000000F00F007E
:10475000884240F00381206844F218464207C5F6BB
:1047600002060AD52269336803F070039A4204D91D
:10477000336823F070031A43326002070AD5626976
:10478000736803F070039A4204D9736823F07003CE
:104790001A437260C2060AD5A269736803F4E06323
:1047A0009A4204D9736823F4E0631A437260820664
:1047B0000AD5E269B36803F070039A4204D9B3687A
:1047C00023F070031A43B26010F002020AD0E368CB
:1047D000376807F00F07BB4204D9376827F00F0787
:1047E0003B433360C3073CD0306820F47062D4E9A7
:1047F00001031A433260012856F8182C09D0032807
:1048000004D0022808D1920309D4A7E0920106D46B
:10481000A4E0D20503D4A1E0520740F19F8088466E
:1048200056F8081C21F00701084346F8080CFFF76A
:1048300013F8054641F2883756F8080C616800F015
:104840003800B0EBC10F08D0FFF706F8401BB842A4
:10485000F2D9032001B0BDE8F0832068414600F0A2
:10486000020252B1E268336803F00F039A4204D2A5
:10487000336823F00F031A433260D9F8002002F0A6
:104880000F028A420CD9D9F8002022F00F020A4305
:10489000C9F80020D9F8002002F00F028A425DD149
:1048A00041070AD52169326802F07002914204D2B0
:1048B000326822F070021143316001070AD5616944
:1048C000726802F07002914204D2726822F07002A3
:1048D00011437160C1060AD5A169726802F4E062F1
:1048E000914204D2726822F4E06211437160800642
:1048F0000AD5E069B16801F07001884204D2B1685C
:1049000021F070010843B06000F0E2F8316843F232
:104910009042C0F60102C1F30321515C336803F0F9
:104920000F0301F01F01D25C20FA01F102F01F0019
:1049300040F2A802C2F2004221FA00F0106040F2F8
:10494000141040F2A402C2F20040C2F20042006819
:10495000116001B0BDE8F043FEF7CABF012001B00D
:10496000BDE8F083000000003F22026044F21842DC
:10497000C5F6020252F8083C03F0070343601368CF
:1049800003F470638360136803F00F03C36013685C
:1049900003F070030361536803F0700343615368CD
:1049A00003F4E0638361926802F07002C26142F234
:1049B0000000C5F20020006800F00F00086070479A
:1049C00080B500F085F844F2184143F29043C5F6F3
:1049D0000201C0F601030A68C2F303229A5C096867
:1049E00001F00F0102F01F02595C20FA02F201F0FF
:1049F0001F0040F2A801C2F2004122FA00F0086054
:104A000040F2A401C2F200410A6080BD0000000033
:104A100080B500F05DF844F2184C43F29043C5F6BF
:104A2000020CC0F60103DCF80020C2F303229A5CFA
:104A3000DCF8001001F00F0102F01F02595CD040B9
:104A400040F2A802C2F2004201F01F0120FA01F177
:104A5000116040F2A402C2F200421060DCF80400CF
:104A6000C0F30210185C00F01F0021FA00F080BDB6
:104A700080B500F02DF844F2184C43F29043C5F68F
:104A8000020CC0F60103DCF80020C2F303229A5C9A
:104A9000DCF8001001F00F0102F01F02595CD04059
:104AA00040F2A802C2F2004201F01F0120FA01F117
:104AB000116040F2A402C2F200421060DCF804006F
:104AC000C0F30220185C00F01F0021FA00F080BD46
:104AD00044F20041C5F602010869C0F3C200032890
:104AE00014D002280DD080BB0868800649F200006F
:104AF000C0F2D03058BF70470968C1F3C101C84047
:104B0000704743F20060C0F26E1070478A6A886A8C
:104B1000C0F3051CC86ABCF1000F4B6B1AD000F043
:104B20000100404200EAD3006FF35F3000EE100A4C
:104B300002F003000228B8EE400A0DD078B90868E8
:104B400080060FD49FED231A19E040F60010C0F242
:104B50003D007047002070479FED1D1A0FE09FED4C
:104B60001B1A0CE0086849F20002C0F2D032C0F310
:104B7000C10022FA00F001EE100AB8EE411A086BEB
:104B80009FED153A6FF35F2002EE100A086BC0F339
:104B90004620B8EE422A013000EE032A00EE10CA89
:104BA000B7EE003AB8EE400A81EE000A32EE031A80
:104BB00020EE010A01EE100AB8EE411A80EE010A59
:104BC000BCEEC00A10EE100A704700BF0024744A01
:104BD000001BB74B0024744C00000039000000009B
:104BE00068B3F0B581B00446007844F20046C007CF
:104BF000C5F6020625D12078800768D5306910F007
:104C00003801B06A40D0182908BF5FEA80703BD0F5
:104C1000E0683168002800F03B8121F01901084369
:104C20003060FEF719FE05463068400748D4FEF7AD
:104C300013FE401B0228F7D9032001B0F0BD01206C
:104C40007047306900F03801B06A102905D0182982
:104C50000AD100F00300022806D130688003CAD5CB
:104C600060680028C7D1BEE061683068002900F0A4
:104C70004881B1F5A02F00F03D81B1F5803F40F0B3
:104C8000578140F4803059E130684007E06802D530
:104C9000002800F0A880316821F019010843306035
:104CA000FEF7DAFD054600BF3068400708D4FEF77E
:104CB000D3FD401B02284FF00300F5D901B0F0BD31
:104CC0007068216920F0FE4040EA01607060207841
:104CD000C0061AD5306900F03801B06A082907D03B
:104CE000182940F0978000F00300012840F09280DE
:104CF0003068C00502D5E069802874D1F068216A67
:104D000020F07C5040EA0160F0602078000756D423
:104D1000207880066AD42078400700F19380656A85
:104D2000002D49D0306900F03800182840F0288163
:104D3000012DB16A306B56D001F00302A36A9A428A
:104D400051D1C1F30511E26A91424CD10146226B67
:104D50006FF35F21013A914245D1C0F34622616B66
:104D600001398A423FD1C0F30642A16B01398A4220
:104D700039D1C0F30660E16B0139884233D1706BE1
:104D8000A16CC0F3CC00814216D0F06A20F0010083
:104D9000F062FEF761FD0546FEF75EFDA842FBD01E
:104DA000706B4FF6F871A26C884340EAC2007063E2
:104DB000F06A40F00100F062002001B0F0BD6069CF
:104DC0000028706F52D040F001007067FEF744FD7C
:104DD000054600BF706F80079AD4FEF73DFD401B6B
:104DE0000228F7D9B7E0012001B0F0BDA069002882
:104DF00030686DD040F480503060FEF72DFD0546E0
:104E0000306880043FF587AFFEF726FD401B02287F
:104E1000F6D9A0E0E0690028306800F09F8040F0FB
:104E200080003060FEF718FD054600BF3068C00501
:104E30003FF564AFFEF710FD401B02284FF0030062
:104E4000F4D93BE7D6F8000440F48070C6F80004BB
:104E5000FEF702FD054600BFD6F80004C00529D4C0
:104E6000FEF7FAFC401B6428F6D974E020F001003C
:104E70007067FEF7F1FC0546706F80077FF548AF5D
:104E8000FEF7EAFC401B02284FF00300F4D915E7B7
:104E900021F001003060FEF7DFFC05463068400776
:104EA0007FF515AFFEF7D8FC401B02284FF003003A
:104EB000F4D903E7A168306F002900F08A80052942
:104EC00000F08080012940F09C8040F001009EE0CD
:104ED00020F480503060FEF7BFFC05463068800447
:104EE0007FF519AFFEF7B8FC401B02284FF0030016
:104EF000F4D9E3E640F480203060306840F480303C
:104F00001CE020F480303060306820F48020306075
:104F1000FEF7A2FC054600BF306880037FF56BAE4C
:104F2000FEF79AFC401B64284FF00300F4D9C5E655
:104F300020F480303060306820F480203060FEF74C
:104F40008BFC0546306880033FF555AEFEF784FCC8
:104F5000401B6428F6D9032001B0F0BD20F080008A
:104F60003060FEF779FC05463068C0057FF5CDAEB0
:104F7000FEF772FC401B02284FF00300F4D99DE6B7
:104F8000306820F080703060FEF766FC022D054628
:104F90000CD100BF306880014CD5FEF75DFC401B92
:104FA00002284FF00300F5D988E600BF3068800181
:104FB0007FF502AFFEF750FC401B02284FF00300C4
:104FC000F4D97BE640F004003067306F40F0010018
:104FD0001DE020F001003067306F20F004003067E2
:104FE000FEF73AFC054641F28837306F80077FF5BF
:104FF00096AEFEF731FC401BB8424FF00300F4D9E7
:105000005CE620F001003067306F20F0040030676C
:10501000FEF722FC054641F2883700BF306F80075B
:105020003FF57DAEFEF718FC401BB8424FF0030081
:10503000F4D943E604F12807B06A40F2F33188431B
:105040008ECF0843591E40EA02104FF47E426FF3A0
:105050005F21B06202EB47204FF4FE0280B2E36BA7
:105060000844A16B02EB01414FF0FE4201F4FE0146
:1050700002EB0362084402F0FE4108443063F06A28
:105080004FF6F87120F00100F062706BA26C88435B
:1050900040EAC2007063F06A216C20F00C00084303
:1050A000F062F06A616C20F002000843F062F06A7E
:1050B00040F48030F062F06A40F40030F062F06A50
:1050C00040F48020F062F06A40F00100F062306845
:1050D00040F080703060FEF7BFFB0446306880010E
:1050E0003FF56AAEFEF7B8FB001B02284FF0030045
:1050F000F4D9E3E500000000704700000000000064
:1051000070B501680B694E698A6890F88150340562
:105110000AD513F0080407D08A6942F400628A6154
:10512000BDE8704000F098BA1E4006F06403042BFE
:1051300007D1416F04468847216F2046BDE8704083
:10514000084706F04503012B08D1016F0446884744
:1051500006F022012046022904D070BD06F0260385
:10516000022B03D1416FBDE870400847330758D484
:1051700016F4587FF1D0710600F1A380B10500F15B
:10518000AE80F10500F1B980B1060AD50168D0F80A
:10519000843043F08003C0F884308B6943F02003EF
:1051A0008B61D0F884100029D7D0016802F4404206
:1051B00040F26B36B2F5404F0B6823F001030B60F1
:1051C0000B6923EA06020A6140F0A6808A684AF267
:1051D000311422F440428A60C16FC0F6000469B104
:1051E000054608460C65FCF7A7F90146284629B193
:1051F000D0F8841041F04001C0F88410816F00297C
:10520000ABD00C6504460846FCF796F9002808BFA9
:1052100070BDD4F88400214640F04000C4F88400FA
:1052200070BD0268936943F008039361936943F08A
:1052300010039361936943F400639361136923F04E
:1052400008031361926812F4404F18D0044604F02A
:105250000BFF012184F88110D4F8841029B3204673
:10526000BDE87040FFF748BF0368426E1B6B42F811
:10527000043B4266B0F86A20013AA0F86A20B0F810
:105280006A20002AE2D0C268102AEDD2082A04D38C
:105290000B8E426E22F8023BEBE7026892F8302058
:1052A000436E1A70426E0132E3E7032D40D0042DA5
:1052B00039D0052D7FF451AF2046BDE8704000F095
:1052C000B7BB0168D0F8843043F00403C0F88430E1
:1052D0008B6943F040038B61B1057FF552AF0168E4
:1052E000D0F8843043F00103C0F884308B6943F474
:1052F00000738B61F1057FF547AF0168D0F884300A
:1053000043F00803C0F884308B6943F480738B61E9
:10531000B1063FF53BAF44E7012180F88110BDE8BD
:105320007040FFF7E9BE2046BDE8704000F090B93C
:105330002046BDE8704000F077BB00000000000090
:1053400000284DD02DE9F04F81B043F600040168EC
:10535000C4F2000443F2000E43F6004CA142C4F232
:10536000010EC4F2000C4FF00002826203D06145CE
:1053700018BF714541D1C26B0125C368A14203F139
:10538000080305EB52124FEAD30303FB02F218BFE6
:10539000714527D1102A33D890F8811031B90021F6
:1053A00080F88010044600F0A7F82046022180F81B
:1053B0008110D0E90019D0F818800D68B8F1806F1D
:1053C00025F001050D608D6805F4F81E24D1B9F1B2
:1053D000000F19D0B9F5800F1ED1856B15BB17E0F2
:1053E00001207047614518BF082A09D80CF574439D
:1053F0009942CFD06145CDD0CEE7C2680F2ABAD945
:10540000012001B0BDE8F08F856BB5F1805F06D15A
:105410000D6845F480550D605FEA492502D44FF0D0
:10542000010C0EE0C468072C09D30D6825F4807CBC
:10543000056D45EA0C050D604FF0000C06E04FF0DD
:10544000000C0C6824F480740C60C468C769836A1B
:1054500047EA0E07C26B3B4387681A43B9F1000F56
:10546000D0E904BA42EA04028A60426B856B436A5F
:1054700042EA0302036A42EA050242EA0B0242EAF6
:105480000A02D0E9126442EA0302836D42EA04028E
:1054900042EA070242EA060242EA030242EA08023C
:1054A00042EA0902CA600DD00A6DBCF1000F22F079
:1054B00001020A6514D1CA68436D22F000421A4302
:1054C000CA600DE08A68012363F3CC228A608A688F
:1054D000022363F34A228A600A6D22F001020A6500
:1054E0000021C0F88410012180F88110002001B053
:1054F000BDE8F08F000000002DE9F047B6B004468B
:1055000002A80830B02100253195CDE93455CDE908
:105510003255FAF741FF43F600012068C4F200015A
:10552000884202D036B0BDE8F0874FF48050029038
:1055300002A80395FEF74CFC08B1FBF7D1FB44F23F
:10554000E04040F20045C5F60200C5F6020531AE66
:1055500040F2280881684FF0020941F480418160DF
:105560008168002701F4804101910199016841F0AF
:10557000040101600168C4F2020801F00401019114
:105580000199016841F0020101600068314600F0B4
:105590000200019001980620319005F58060CDF859
:1055A000C8904FF0050A33973497CDF8D4A0FEF792
:1055B00077F84FF400503146CDE931092846CDF84F
:1055C000D4A0CDE93377FEF76BF840F69825272075
:1055D000C2F200454FF48066C5E901074FF4003080
:1055E000C5F80080C5E908072846EF60C5E90467EB
:1055F000C5E90677FCF7C8FC08B1FBF771FBE56766
:1056000008F11800AC6340F61035C2F2004528607E
:10561000282068604020C5E902074FF48030C5E9C2
:1056200008072846C5E90467C5E90677FCF7ACFC1E
:1056300008B1FBF755FB242005210022A567AC63C8
:10564000FEF726FA2420FEF70FFA36B0BDE8F08701
:1056500070470000000000007047000000000000DC
:105660002DE9F04F81B09B4615460F460446D0F811
:105670000090C66BFEF7F0F894F8811001290FD165
:1056800080464FF0010027B1002D18BFBBF1000F7D
:1056900002D101B0BDE8F08F94F88000012803D159
:1056A000022001B0BDE8F08F012084F880000520C1
:1056B00084F881000021C4F88410656643F6000276
:1056C000A4F86AB0C4F20002A4F868B0E765102735
:1056D000A4F862B02068A4F860B0216790426167C6
:1056E000C16821F4C021C1600CD043F60041C4F26E
:1056F0000001884206D043F20001C4F20101884251
:1057000018BF082741684FF6FF7291435944416022
:10571000016841F0010101606168B1F5800F4FF04F
:10572000010103D1026842F400720260E0680A9A43
:10573000102801EB561153D3BD0801208FB202F19E
:10574000010901225E460FE04FF0000BB2B246EABB
:105750000B011FFA8BF0002A18BF0122002818BF86
:105760000120090400F03A812168D2071FFA8BF268
:105770004B6912D013F002031CBF15FA86F3934253
:105780000BD9E36D53F8046B0E62E365B4F8623035
:10579000013BA4F86230B4F86260C0074869D3D016
:1057A0004B69DB0704D1BA420FD210F400400CD091
:1057B000096B606E016004306066B4F86A000138FD
:1057C000A4F86A00B4F86AB0C0E7FEF745F8B9F18A
:1057D000000FBBD0A0EB08000A998842B6D3EAE0DC
:1057E00007284FF6FF726BD91FFA81FA0A997F08D2
:1057F000012001310091551E01215E4610E000BFDD
:105800004FF0000BB1B246EA0B021FFA8BF00029F1
:1058100018BF0121002818BF0120120400F0DE800B
:105820002268C9071FFA8BF1536913D013F00203E2
:105830001CBF17FA86F38B420CD9E36D33F8026B69
:10584000A9F82060E365B4F86230013BA4F8623047
:10585000B4F86260C0075069D2D05269D20714D13F
:1058600051450DD210F400420AD0B9F83010606EE4
:1058700020F8041BB9F8301020F8021C29460BE070
:10588000012912D110F400500FD0B9F83010606E19
:1058900020F8021B4FF6FF716066B4F86A000844F6
:1058A000A4F86A00B4F86AB0ACE7FDF7D5FF009938
:1058B0000029A7D0A0EB08000A998842A2D37AE079
:1058C0001FFA81F901200A99D61E01225D46013195
:1058D00000910EE04FF0000BAAB245EA0B011FFA4F
:1058E0008BF0002A18BF0122002818BF01200904EC
:1058F00074D02168D2071FFA8BF24B6915D013F0D0
:1059000002031CBF17FA85F393420ED9E36D1B788F
:1059100081F82030E16D0131E1652168B4F8623031
:10592000013BA4F86230B4F86250C0074869D1D096
:105930004B69DB0724D14A451DD210F400431AD02D
:1059400091F83000616E08702068616E4A1C6266D2
:1059500090F8300048702068616E4A1C626690F8CA
:10596000300048702068616E4A1C626690F8300012
:10597000487030460AE0032A13D810F4C04010D013
:1059800091F83000616E08704FF6FF70616E013162
:105990006166B4F86A100844A4F86A00B4F86AB002
:1059A0009AE7FDF759FF0099002995D0A0EB080070
:1059B0000A99884290D3204604F056FBD4F884001C
:1059C00040F48070C4F88400012084F88100002035
:1059D00084F88000032001B0BDE8F08F0A9E751C9A
:1059E0002068406900070DD4FDF736FF002DF7D081
:1059F000A0EB0800B042F3D3D4F8840040F02000BC
:105A0000C4F88400204604F02FFB012084F88100B4
:105A1000002084F88000D4F88400002818BF0120FA
:105A200001B0BDE8F08F00007047000000000000EA
:105A3000704700000000000040F20442C5F600027A
:105A4000136823EA0000084310607047000000005C
:105A500070470000000000007047000000000000D8
:105A6000704700000000000090F83C20012A4FF031
:105A7000020266D0B0B580F83D2040F2004C0268CA
:105A8000C4F2010C42F4806363455368D2F808E025
:105A900002BF23F470034C6823434DF6FF740D6876
:105AA000C4F2000423F07003A24243EA05035360EA
:105AB00014DC40F2FF73C4F200039A4222DD40F688
:105AC0000003C4F200039A422ED040F60043C4F211
:105AD00000039A4228D041F6000321E04FF6FF73FD
